{
  "abi": [
    {
      "type": "constructor",
      "inputs": [],
      "stateMutability": "nonpayable"
    },
    {
      "type": "function",
      "name": "completeShipment",
      "inputs": [
        {
          "name": "_sender",
          "type": "address",
          "internalType": "address"
        },
        {
          "name": "_receiver",
          "type": "address",
          "internalType": "address"
        },
        {
          "name": "_index",
          "type": "uint256",
          "internalType": "uint256"
        }
      ],
      "outputs": [],
      "stateMutability": "nonpayable"
    },
    {
      "type": "function",
      "name": "createShipment",
      "inputs": [
        {
          "name": "_receiver",
          "type": "address",
          "internalType": "address"
        },
        {
          "name": "_pickupTime",
          "type": "uint256",
          "internalType": "uint256"
        },
        {
          "name": "_distance",
          "type": "uint256",
          "internalType": "uint256"
        },
        {
          "name": "_price",
          "type": "uint256",
          "internalType": "uint256"
        }
      ],
      "outputs": [],
      "stateMutability": "payable"
    },
    {
      "type": "function",
      "name": "getAllTransaction",
      "inputs": [],
      "outputs": [
        {
          "name": "",
          "type": "tuple[]",
          "internalType": "struct Tracking.typeShipment[]",
          "components": [
            {
              "name": "sender",
              "type": "address",
              "internalType": "address"
            },
            {
              "name": "receiver",
              "type": "address",
              "internalType": "address"
            },
            {
              "name": "pickupTime",
              "type": "uint256",
              "internalType": "uint256"
            },
            {
              "name": "deliveryTime",
              "type": "uint256",
              "internalType": "uint256"
            },
            {
              "name": "status",
              "type": "uint8",
              "internalType": "enum Tracking.shipmentStatus"
            },
            {
              "name": "isPaid",
              "type": "bool",
              "internalType": "bool"
            },
            {
              "name": "price",
              "type": "uint256",
              "internalType": "uint256"
            },
            {
              "name": "distance",
              "type": "uint256",
              "internalType": "uint256"
            }
          ]
        }
      ],
      "stateMutability": "view"
    },
    {
      "type": "function",
      "name": "getShipment",
      "inputs": [
        {
          "name": "_sender",
          "type": "address",
          "internalType": "address"
        },
        {
          "name": "_index",
          "type": "uint256",
          "internalType": "uint256"
        }
      ],
      "outputs": [
        {
          "name": "",
          "type": "address",
          "internalType": "address"
        },
        {
          "name": "",
          "type": "address",
          "internalType": "address"
        },
        {
          "name": "",
          "type": "uint256",
          "internalType": "uint256"
        },
        {
          "name": "",
          "type": "uint256",
          "internalType": "uint256"
        },
        {
          "name": "",
          "type": "uint256",
          "internalType": "uint256"
        },
        {
          "name": "",
          "type": "uint256",
          "internalType": "uint256"
        },
        {
          "name": "",
          "type": "uint8",
          "internalType": "enum Tracking.shipmentStatus"
        },
        {
          "name": "",
          "type": "bool",
          "internalType": "bool"
        }
      ],
      "stateMutability": "view"
    },
    {
      "type": "function",
      "name": "getShipmentsCount",
      "inputs": [
        {
          "name": "_sender",
          "type": "address",
          "internalType": "address"
        }
      ],
      "outputs": [
        {
          "name": "",
          "type": "uint256",
          "internalType": "uint256"
        }
      ],
      "stateMutability": "view"
    },
    {
      "type": "function",
      "name": "shipmentCount",
      "inputs": [],
      "outputs": [
        {
          "name": "",
          "type": "uint256",
          "internalType": "uint256"
        }
      ],
      "stateMutability": "view"
    },
    {
      "type": "function",
      "name": "shipments",
      "inputs": [
        {
          "name": "",
          "type": "address",
          "internalType": "address"
        },
        {
          "name": "",
          "type": "uint256",
          "internalType": "uint256"
        }
      ],
      "outputs": [
        {
          "name": "sender",
          "type": "address",
          "internalType": "address"
        },
        {
          "name": "receiver",
          "type": "address",
          "internalType": "address"
        },
        {
          "name": "pickupTime",
          "type": "uint256",
          "internalType": "uint256"
        },
        {
          "name": "deliveryTime",
          "type": "uint256",
          "internalType": "uint256"
        },
        {
          "name": "status",
          "type": "uint8",
          "internalType": "enum Tracking.shipmentStatus"
        },
        {
          "name": "isPaid",
          "type": "bool",
          "internalType": "bool"
        },
        {
          "name": "price",
          "type": "uint256",
          "internalType": "uint256"
        },
        {
          "name": "distance",
          "type": "uint256",
          "internalType": "uint256"
        }
      ],
      "stateMutability": "view"
    },
    {
      "type": "function",
      "name": "startShipment",
      "inputs": [
        {
          "name": "_sender",
          "type": "address",
          "internalType": "address"
        },
        {
          "name": "_receiver",
          "type": "address",
          "internalType": "address"
        },
        {
          "name": "_index",
          "type": "uint256",
          "internalType": "uint256"
        }
      ],
      "outputs": [],
      "stateMutability": "nonpayable"
    },
    {
      "type": "event",
      "name": "ShipmentCreated",
      "inputs": [
        {
          "name": "sender",
          "type": "address",
          "indexed": true,
          "internalType": "address"
        },
        {
          "name": "receiver",
          "type": "address",
          "indexed": true,
          "internalType": "address"
        },
        {
          "name": "pickupTime",
          "type": "uint256",
          "indexed": false,
          "internalType": "uint256"
        },
        {
          "name": "deliveryTime",
          "type": "uint256",
          "indexed": false,
          "internalType": "uint256"
        },
        {
          "name": "distance",
          "type": "uint256",
          "indexed": false,
          "internalType": "uint256"
        },
        {
          "name": "price",
          "type": "uint256",
          "indexed": false,
          "internalType": "uint256"
        }
      ],
      "anonymous": false
    },
    {
      "type": "event",
      "name": "ShipmentDelivered",
      "inputs": [
        {
          "name": "sender",
          "type": "address",
          "indexed": true,
          "internalType": "address"
        },
        {
          "name": "receiver",
          "type": "address",
          "indexed": true,
          "internalType": "address"
        },
        {
          "name": "deliveryTime",
          "type": "uint256",
          "indexed": false,
          "internalType": "uint256"
        }
      ],
      "anonymous": false
    },
    {
      "type": "event",
      "name": "ShipmentInTransit",
      "inputs": [
        {
          "name": "sender",
          "type": "address",
          "indexed": true,
          "internalType": "address"
        },
        {
          "name": "receiver",
          "type": "address",
          "indexed": true,
          "internalType": "address"
        },
        {
          "name": "pickupTime",
          "type": "uint256",
          "indexed": false,
          "internalType": "uint256"
        }
      ],
      "anonymous": false
    },
    {
      "type": "event",
      "name": "ShipmentPaid",
      "inputs": [
        {
          "name": "sender",
          "type": "address",
          "indexed": true,
          "internalType": "address"
        },
        {
          "name": "receiver",
          "type": "address",
          "indexed": true,
          "internalType": "address"
        },
        {
          "name": "amount",
          "type": "uint256",
          "indexed": false,
          "internalType": "uint256"
        }
      ],
      "anonymous": false
    }
  ],
  "bytecode": {
    "object": "0x6080604052348015600f57600080fd5b506000600155610e4f806100246000396000f3fe60806040526004361061007b5760003560e01c80638365da541161004e5780638365da541461013f578063aace20b714610173578063add6415d14610189578063cbc4b181146101ab57600080fd5b8063179a878c1461008057806341fdc195146100a25780635667e02f146100eb5780637ff5265d1461011f575b600080fd5b34801561008c57600080fd5b506100a061009b366004610b8b565b6101be565b005b3480156100ae57600080fd5b506100d86100bd366004610bc8565b6001600160a01b031660009081526020819052604090205490565b6040519081526020015b60405180910390f35b3480156100f757600080fd5b5061010b610106366004610bea565b610458565b6040516100e2989796959493929190610c4c565b34801561012b57600080fd5b506100a061013a366004610b8b565b6104cd565b34801561014b57600080fd5b5061015f61015a366004610bea565b610657565b6040516100e2989796959493929190610c9f565b34801561017f57600080fd5b506100d860015481565b34801561019557600080fd5b5061019e610799565b6040516100e29190610cf6565b6100a06101b9366004610da3565b610893565b6001600160a01b03831660009081526020819052604081208054839081106101e8576101e8610ddc565b9060005260206000209060070201905060006002838154811061020d5761020d610ddc565b60009182526020909120600184015460079092020191506001600160a01b038581169116146102765760405162461bcd60e51b815260206004820152601060248201526f24b73b30b634b2103932b1b2b4bb32b960811b60448201526064015b60405180910390fd5b6001600483015460ff16600281111561029157610291610c14565b146102de5760405162461bcd60e51b815260206004820152601a60248201527f536869706d656e74206973206e6f7420696e207472616e736974000000000000604482015260640161026d565b6004820154610100900460ff16156103305760405162461bcd60e51b815260206004820152601560248201527414da1a5c1b595b9d08185b1c9958591e481c185a59605a1b604482015260640161026d565b60048281018054600260ff1991821681179092559183018054909216179055426003808301829055830155600582015482546040516001600160a01b039091169082156108fc029083906000818181858888f19350505050158015610399573d6000803e3d6000fd5b506004838101805461010061ff00199182168117909255918401805490921617905560038301546040519081526001600160a01b0386811691908816907f3746ccceb54f44c9b0ee0120e596168d07ec9f6ca303cfdd9810d3b2e2686a2e9060200160405180910390a3846001600160a01b0316866001600160a01b03167f2b6f2473aebafaf8d0889669490135928ec4454d2e29a103fd39693bbca6aef18360405161044891815260200190565b60405180910390a3505050505050565b6000602052816000526040600020818154811061047457600080fd5b600091825260209091206007909102018054600182015460028301546003840154600485015460058601546006909601546001600160a01b0395861698509490931695509093909260ff80841693610100900416919088565b6001600160a01b03831660009081526020819052604081208054839081106104f7576104f7610ddc565b9060005260206000209060070201905060006002838154811061051c5761051c610ddc565b60009182526020909120600184015460079092020191506001600160a01b038581169116146105805760405162461bcd60e51b815260206004820152601060248201526f24b73b30b634b2102932b1b2b4bb32b960811b604482015260640161026d565b6000600483015460ff16600281111561059b5761059b610c14565b146105e85760405162461bcd60e51b815260206004820152601e60248201527f536869706d656e7420697320616c726561647920696e207472616e7369740000604482015260640161026d565b60048281018054600160ff199182168117909255918301805490921617905560028201546040519081526001600160a01b0385811691908716907faafab9f94340179ff9cefd29621e1772a4b8efab8023163838f1b0a8f6ce5df5906020015b60405180910390a35050505050565b60008060008060008060008060008060008c6001600160a01b03166001600160a01b031681526020019081526020016000208a8154811061069a5761069a610ddc565b60009182526020918290206040805161010081018252600790930290910180546001600160a01b0390811684526001820154169383019390935260028084015491830191909152600383015460608301526004830154919291608084019160ff9091169081111561070d5761070d610c14565b600281111561071e5761071e610c14565b81526020016004820160019054906101000a900460ff1615151515815260200160058201548152602001600682015481525050905080600001518160200151826040015183606001518460e001518560c0015186608001518760a0015198509850985098509850985098509850509295985092959890939650565b60606002805480602002602001604051908101604052809291908181526020016000905b8282101561088a57600084815260209081902060408051610100810182526007860290920180546001600160a01b0390811684526001820154169383019390935260028084015491830191909152600383015460608301526004830154919291608084019160ff9091169081111561083757610837610c14565b600281111561084857610848610c14565b81526020016004820160019054906101000a900460ff1615151515815260200160058201548152602001600682015481525050815260200190600101906107bd565b50505050905090565b8034146108d35760405162461bcd60e51b815260206004820152600e60248201526d125b9d985b1a5908105b5bdd5b9d60921b604482015260640161026d565b6040805161010081018252338082526001600160a01b0387811660208085019182528486018981526000606087018181526080880182815260a0890183905260c089018b905260e089018c905296825281845297812080546001808201835591835293909120875160079094020180549386166001600160a01b031994851617815593518482018054919096169316929092179093559151600280830191909155945160038201559151600483018054949586959293919260ff1916919084908111156109a2576109a2610c14565b021790555060a08201516004820180549115156101000261ff001990921691909117905560c0820151600582015560e090910151600690910155600180549060006109ec83610df2565b91905055506002604051806101000160405280336001600160a01b03168152602001876001600160a01b031681526020018681526020016000815260200160006002811115610a3d57610a3d610c14565b8152600060208083018290526040808401889052606093840189905285546001808201885596845292829020855160079094020180546001600160a01b03199081166001600160a01b039586161782559286015181880180549094169416939093179091558301516002808301919091559183015160038201556080830151600482018054949592949193909260ff1990921691908490811115610ae357610ae3610c14565b021790555060a08201516004820180549115156101000261ff001990921691909117905560c0820151600582015560e0909101516006909101556040805185815260006020820152908101849052606081018390526001600160a01b0386169033907f2947526c14d41e26bf003d7ef7432e8c1448e669cef3671dc4d1230c541be64390608001610648565b80356001600160a01b0381168114610b8657600080fd5b919050565b600080600060608486031215610ba057600080fd5b610ba984610b6f565b9250610bb760208501610b6f565b929592945050506040919091013590565b600060208284031215610bda57600080fd5b610be382610b6f565b9392505050565b60008060408385031215610bfd57600080fd5b610c0683610b6f565b946020939093013593505050565b634e487b7160e01b600052602160045260246000fd5b60038110610c4857634e487b7160e01b600052602160045260246000fd5b9052565b6001600160a01b0389811682528816602082015260408101879052606081018690526101008101610c806080830187610c2a565b93151560a082015260c081019290925260e09091015295945050505050565b6001600160a01b0389811682528816602082015260408101879052606081018690526080810185905260a081018490526101008101610ce160c0830185610c2a565b82151560e08301529998505050505050505050565b602080825282518282018190526000918401906040840190835b81811015610d9857835160018060a01b03815116845260018060a01b03602082015116602085015260408101516040850152606081015160608501526080810151610d5e6080860182610c2a565b5060a0810151151560a085015260c081015160c085015260e081015160e08501525061010083019250602084019350600181019050610d10565b509095945050505050565b60008060008060808587031215610db957600080fd5b610dc285610b6f565b966020860135965060408601359560600135945092505050565b634e487b7160e01b600052603260045260246000fd5b600060018201610e1257634e487b7160e01b600052601160045260246000fd5b506001019056fea26469706673582212202d0733ff0f7ce963839498816a90e84f8c0558f4cb1459b3047d33c12c1a7abb64736f6c634300081a0033",
    "linkReferences": {}
  },
  "methodIdentifiers": {
    "completeShipment(address,address,uint256)": "179a878c",
    "createShipment(address,uint256,uint256,uint256)": "cbc4b181",
    "getAllTransaction()": "add6415d",
    "getShipment(address,uint256)": "8365da54",
    "getShipmentsCount(address)": "41fdc195",
    "shipmentCount()": "aace20b7",
    "shipments(address,uint256)": "5667e02f",
    "startShipment(address,address,uint256)": "7ff5265d"
  },
  "id": 20
}