{
  "_format": "hh-sol-artifact-1",
  "contractName": "Tracking",
  "sourceName": "contracts/Tracking.sol",
  "abi": [
    {
      "inputs": [],
      "stateMutability": "nonpayable",
      "type": "constructor"
    },
    {
      "anonymous": false,
      "inputs": [
        {
          "indexed": true,
          "internalType": "address",
          "name": "sender",
          "type": "address"
        },
        {
          "indexed": true,
          "internalType": "address",
          "name": "receiver",
          "type": "address"
        },
        {
          "indexed": false,
          "internalType": "uint256",
          "name": "pickupTime",
          "type": "uint256"
        },
        {
          "indexed": false,
          "internalType": "uint256",
          "name": "deliveryTime",
          "type": "uint256"
        },
        {
          "indexed": false,
          "internalType": "uint256",
          "name": "distance",
          "type": "uint256"
        },
        {
          "indexed": false,
          "internalType": "uint256",
          "name": "price",
          "type": "uint256"
        }
      ],
      "name": "ShipmentCreated",
      "type": "event"
    },
    {
      "anonymous": false,
      "inputs": [
        {
          "indexed": true,
          "internalType": "address",
          "name": "sender",
          "type": "address"
        },
        {
          "indexed": true,
          "internalType": "address",
          "name": "receiver",
          "type": "address"
        },
        {
          "indexed": false,
          "internalType": "uint256",
          "name": "deliveryTime",
          "type": "uint256"
        }
      ],
      "name": "ShipmentDelivered",
      "type": "event"
    },
    {
      "anonymous": false,
      "inputs": [
        {
          "indexed": true,
          "internalType": "address",
          "name": "sender",
          "type": "address"
        },
        {
          "indexed": true,
          "internalType": "address",
          "name": "receiver",
          "type": "address"
        },
        {
          "indexed": false,
          "internalType": "uint256",
          "name": "pickupTime",
          "type": "uint256"
        }
      ],
      "name": "ShipmentInTransit",
      "type": "event"
    },
    {
      "anonymous": false,
      "inputs": [
        {
          "indexed": true,
          "internalType": "address",
          "name": "sender",
          "type": "address"
        },
        {
          "indexed": true,
          "internalType": "address",
          "name": "receiver",
          "type": "address"
        },
        {
          "indexed": false,
          "internalType": "uint256",
          "name": "amount",
          "type": "uint256"
        }
      ],
      "name": "ShipmentPaid",
      "type": "event"
    },
    {
      "inputs": [
        {
          "internalType": "address",
          "name": "_sender",
          "type": "address"
        },
        {
          "internalType": "address",
          "name": "_receiver",
          "type": "address"
        },
        {
          "internalType": "uint256",
          "name": "_index",
          "type": "uint256"
        }
      ],
      "name": "completeShipment",
      "outputs": [],
      "stateMutability": "nonpayable",
      "type": "function"
    },
    {
      "inputs": [
        {
          "internalType": "address",
          "name": "_receiver",
          "type": "address"
        },
        {
          "internalType": "uint256",
          "name": "_pickupTime",
          "type": "uint256"
        },
        {
          "internalType": "uint256",
          "name": "_distance",
          "type": "uint256"
        },
        {
          "internalType": "uint256",
          "name": "_price",
          "type": "uint256"
        }
      ],
      "name": "createShipment",
      "outputs": [],
      "stateMutability": "payable",
      "type": "function"
    },
    {
      "inputs": [],
      "name": "getAllTransaction",
      "outputs": [
        {
          "components": [
            {
              "internalType": "address",
              "name": "sender",
              "type": "address"
            },
            {
              "internalType": "address",
              "name": "reciever",
              "type": "address"
            },
            {
              "internalType": "uint256",
              "name": "pickupTime",
              "type": "uint256"
            },
            {
              "internalType": "uint256",
              "name": "deliveryTime",
              "type": "uint256"
            },
            {
              "internalType": "enum Tracking.shipmentStatus",
              "name": "status",
              "type": "uint8"
            },
            {
              "internalType": "bool",
              "name": "isPaid",
              "type": "bool"
            },
            {
              "internalType": "uint256",
              "name": "price",
              "type": "uint256"
            },
            {
              "internalType": "uint256",
              "name": "distance",
              "type": "uint256"
            }
          ],
          "internalType": "struct Tracking.typeShipment[]",
          "name": "",
          "type": "tuple[]"
        }
      ],
      "stateMutability": "view",
      "type": "function"
    },
    {
      "inputs": [
        {
          "internalType": "address",
          "name": "_sender",
          "type": "address"
        },
        {
          "internalType": "uint256",
          "name": "_index",
          "type": "uint256"
        }
      ],
      "name": "getShipment",
      "outputs": [
        {
          "internalType": "address",
          "name": "",
          "type": "address"
        },
        {
          "internalType": "address",
          "name": "",
          "type": "address"
        },
        {
          "internalType": "uint256",
          "name": "",
          "type": "uint256"
        },
        {
          "internalType": "uint256",
          "name": "",
          "type": "uint256"
        },
        {
          "internalType": "uint256",
          "name": "",
          "type": "uint256"
        },
        {
          "internalType": "uint256",
          "name": "",
          "type": "uint256"
        },
        {
          "internalType": "enum Tracking.shipmentStatus",
          "name": "",
          "type": "uint8"
        },
        {
          "internalType": "bool",
          "name": "",
          "type": "bool"
        }
      ],
      "stateMutability": "view",
      "type": "function"
    },
    {
      "inputs": [
        {
          "internalType": "address",
          "name": "_sender",
          "type": "address"
        }
      ],
      "name": "getShipmentsCount",
      "outputs": [
        {
          "internalType": "uint256",
          "name": "",
          "type": "uint256"
        }
      ],
      "stateMutability": "view",
      "type": "function"
    },
    {
      "inputs": [],
      "name": "shipmentCount",
      "outputs": [
        {
          "internalType": "uint256",
          "name": "",
          "type": "uint256"
        }
      ],
      "stateMutability": "view",
      "type": "function"
    },
    {
      "inputs": [
        {
          "internalType": "address",
          "name": "",
          "type": "address"
        },
        {
          "internalType": "uint256",
          "name": "",
          "type": "uint256"
        }
      ],
      "name": "shipments",
      "outputs": [
        {
          "internalType": "address",
          "name": "sender",
          "type": "address"
        },
        {
          "internalType": "address",
          "name": "reciever",
          "type": "address"
        },
        {
          "internalType": "uint256",
          "name": "pickupTime",
          "type": "uint256"
        },
        {
          "internalType": "uint256",
          "name": "deliveryTime",
          "type": "uint256"
        },
        {
          "internalType": "enum Tracking.shipmentStatus",
          "name": "status",
          "type": "uint8"
        },
        {
          "internalType": "bool",
          "name": "isPaid",
          "type": "bool"
        },
        {
          "internalType": "uint256",
          "name": "price",
          "type": "uint256"
        },
        {
          "internalType": "uint256",
          "name": "distance",
          "type": "uint256"
        }
      ],
      "stateMutability": "view",
      "type": "function"
    },
    {
      "inputs": [
        {
          "internalType": "address",
          "name": "_sender",
          "type": "address"
        },
        {
          "internalType": "address",
          "name": "_receiver",
          "type": "address"
        },
        {
          "internalType": "uint256",
          "name": "_index",
          "type": "uint256"
        }
      ],
      "name": "startShipment",
      "outputs": [],
      "stateMutability": "nonpayable",
      "type": "function"
    }
  ],
  "bytecode": "0x608060405234801561001057600080fd5b506000600181905550611a61806100286000396000f3fe60806040526004361061007b5760003560e01c80638365da541161004e5780638365da5414610153578063aace20b714610197578063add6415d146101c2578063cbc4b181146101ed5761007b565b8063179a878c1461008057806341fdc195146100a95780635667e02f146100e65780637ff5265d1461012a575b600080fd5b34801561008c57600080fd5b506100a760048036038101906100a291906111c4565b610209565b005b3480156100b557600080fd5b506100d060048036038101906100cb9190611217565b6105dd565b6040516100dd9190611253565b60405180910390f35b3480156100f257600080fd5b5061010d6004803603810190610108919061126e565b610628565b60405161012198979695949392919061134f565b60405180910390f35b34801561013657600080fd5b50610151600480360381019061014c91906111c4565b6106e7565b005b34801561015f57600080fd5b5061017a6004803603810190610175919061126e565b610943565b60405161018e9897969594939291906113cd565b60405180910390f35b3480156101a357600080fd5b506101ac610b2d565b6040516101b99190611253565b60405180910390f35b3480156101ce57600080fd5b506101d7610b33565b6040516101e491906115d9565b60405180910390f35b610207600480360381019061020291906115fb565b610cbd565b005b60008060008573ffffffffffffffffffffffffffffffffffffffff1673ffffffffffffffffffffffffffffffffffffffff168152602001908152602001600020828154811061025b5761025a611662565b5b9060005260206000209060070201905060006002838154811061028157610280611662565b5b906000526020600020906007020190508373ffffffffffffffffffffffffffffffffffffffff168260010160009054906101000a900473ffffffffffffffffffffffffffffffffffffffff1673ffffffffffffffffffffffffffffffffffffffff1614610323576040517f08c379a000000000000000000000000000000000000000000000000000000000815260040161031a906116ee565b60405180910390fd5b60016002811115610337576103366112bd565b5b8260040160009054906101000a900460ff16600281111561035b5761035a6112bd565b5b1461039b576040517f08c379a00000000000000000000000000000000000000000000000000000000081526004016103929061175a565b60405180910390fd5b8160040160019054906101000a900460ff16156103ed576040517f08c379a00000000000000000000000000000000000000000000000000000000081526004016103e4906117c6565b60405180910390fd5b60028260040160006101000a81548160ff02191690836002811115610415576104146112bd565b5b021790555060028160040160006101000a81548160ff02191690836002811115610442576104416112bd565b5b02179055504281600301819055504282600301819055506000826005015490508260000160009054906101000a900473ffffffffffffffffffffffffffffffffffffffff1673ffffffffffffffffffffffffffffffffffffffff166108fc829081150290604051600060405180830381858888f193505050501580156104cc573d6000803e3d6000fd5b5060018360040160016101000a81548160ff02191690831515021790555060018260040160016101000a81548160ff0219169083151502179055508473ffffffffffffffffffffffffffffffffffffffff168673ffffffffffffffffffffffffffffffffffffffff167f3746ccceb54f44c9b0ee0120e596168d07ec9f6ca303cfdd9810d3b2e2686a2e85600301546040516105689190611253565b60405180910390a38473ffffffffffffffffffffffffffffffffffffffff168673ffffffffffffffffffffffffffffffffffffffff167f2b6f2473aebafaf8d0889669490135928ec4454d2e29a103fd39693bbca6aef1836040516105cd9190611253565b60405180910390a3505050505050565b60008060008373ffffffffffffffffffffffffffffffffffffffff1673ffffffffffffffffffffffffffffffffffffffff168152602001908152602001600020805490509050919050565b6000602052816000526040600020818154811061064457600080fd5b9060005260206000209060070201600091509150508060000160009054906101000a900473ffffffffffffffffffffffffffffffffffffffff16908060010160009054906101000a900473ffffffffffffffffffffffffffffffffffffffff16908060020154908060030154908060040160009054906101000a900460ff16908060040160019054906101000a900460ff16908060050154908060060154905088565b60008060008573ffffffffffffffffffffffffffffffffffffffff1673ffffffffffffffffffffffffffffffffffffffff168152602001908152602001600020828154811061073957610738611662565b5b9060005260206000209060070201905060006002838154811061075f5761075e611662565b5b906000526020600020906007020190508373ffffffffffffffffffffffffffffffffffffffff168260010160009054906101000a900473ffffffffffffffffffffffffffffffffffffffff1673ffffffffffffffffffffffffffffffffffffffff1614610801576040517f08c379a00000000000000000000000000000000000000000000000000000000081526004016107f890611832565b60405180910390fd5b60006002811115610815576108146112bd565b5b8260040160009054906101000a900460ff166002811115610839576108386112bd565b5b14610879576040517f08c379a00000000000000000000000000000000000000000000000000000000081526004016108709061189e565b60405180910390fd5b60018260040160006101000a81548160ff021916908360028111156108a1576108a06112bd565b5b021790555060018160040160006101000a81548160ff021916908360028111156108ce576108cd6112bd565b5b02179055508373ffffffffffffffffffffffffffffffffffffffff168573ffffffffffffffffffffffffffffffffffffffff167faafab9f94340179ff9cefd29621e1772a4b8efab8023163838f1b0a8f6ce5df584600201546040516109349190611253565b60405180910390a35050505050565b60008060008060008060008060008060008c73ffffffffffffffffffffffffffffffffffffffff1673ffffffffffffffffffffffffffffffffffffffff1681526020019081526020016000208a815481106109a1576109a0611662565b5b9060005260206000209060070201604051806101000160405290816000820160009054906101000a900473ffffffffffffffffffffffffffffffffffffffff1673ffffffffffffffffffffffffffffffffffffffff1673ffffffffffffffffffffffffffffffffffffffff1681526020016001820160009054906101000a900473ffffffffffffffffffffffffffffffffffffffff1673ffffffffffffffffffffffffffffffffffffffff1673ffffffffffffffffffffffffffffffffffffffff16815260200160028201548152602001600382015481526020016004820160009054906101000a900460ff166002811115610aa057610a9f6112bd565b5b6002811115610ab257610ab16112bd565b5b81526020016004820160019054906101000a900460ff1615151515815260200160058201548152602001600682015481525050905080600001518160200151826040015183606001518460e001518560c0015186608001518760a0015198509850985098509850985098509850509295985092959890939650565b60015481565b60606002805480602002602001604051908101604052809291908181526020016000905b82821015610cb45783829060005260206000209060070201604051806101000160405290816000820160009054906101000a900473ffffffffffffffffffffffffffffffffffffffff1673ffffffffffffffffffffffffffffffffffffffff1673ffffffffffffffffffffffffffffffffffffffff1681526020016001820160009054906101000a900473ffffffffffffffffffffffffffffffffffffffff1673ffffffffffffffffffffffffffffffffffffffff1673ffffffffffffffffffffffffffffffffffffffff16815260200160028201548152602001600382015481526020016004820160009054906101000a900460ff166002811115610c6057610c5f6112bd565b5b6002811115610c7257610c716112bd565b5b81526020016004820160019054906101000a900460ff161515151581526020016005820154815260200160068201548152505081526020019060010190610b57565b50505050905090565b803414610cff576040517f08c379a0000000000000000000000000000000000000000000000000000000008152600401610cf69061190a565b60405180910390fd5b60006040518061010001604052803373ffffffffffffffffffffffffffffffffffffffff1681526020018673ffffffffffffffffffffffffffffffffffffffff1681526020018581526020016000815260200160006002811115610d6657610d656112bd565b5b81526020016000151581526020018381526020018481525090506000803373ffffffffffffffffffffffffffffffffffffffff1673ffffffffffffffffffffffffffffffffffffffff16815260200190815260200160002081908060018154018082558091505060019003906000526020600020906007020160009091909190915060008201518160000160006101000a81548173ffffffffffffffffffffffffffffffffffffffff021916908373ffffffffffffffffffffffffffffffffffffffff16021790555060208201518160010160006101000a81548173ffffffffffffffffffffffffffffffffffffffff021916908373ffffffffffffffffffffffffffffffffffffffff160217905550604082015181600201556060820151816003015560808201518160040160006101000a81548160ff02191690836002811115610eb557610eb46112bd565b5b021790555060a08201518160040160016101000a81548160ff02191690831515021790555060c0820151816005015560e08201518160060155505060016000815480929190610f0390611959565b919050555060026040518061010001604052803373ffffffffffffffffffffffffffffffffffffffff1681526020018773ffffffffffffffffffffffffffffffffffffffff1681526020018681526020016000815260200160006002811115610f6f57610f6e6112bd565b5b815260200160001515815260200184815260200185815250908060018154018082558091505060019003906000526020600020906007020160009091909190915060008201518160000160006101000a81548173ffffffffffffffffffffffffffffffffffffffff021916908373ffffffffffffffffffffffffffffffffffffffff16021790555060208201518160010160006101000a81548173ffffffffffffffffffffffffffffffffffffffff021916908373ffffffffffffffffffffffffffffffffffffffff160217905550604082015181600201556060820151816003015560808201518160040160006101000a81548160ff0219169083600281111561107d5761107c6112bd565b5b021790555060a08201518160040160016101000a81548160ff02191690831515021790555060c0820151816005015560e0820151816006015550508473ffffffffffffffffffffffffffffffffffffffff163373ffffffffffffffffffffffffffffffffffffffff167f2947526c14d41e26bf003d7ef7432e8c1448e669cef3671dc4d1230c541be643866000878760405161111c94939291906119e6565b60405180910390a35050505050565b600080fd5b600073ffffffffffffffffffffffffffffffffffffffff82169050919050565b600061115b82611130565b9050919050565b61116b81611150565b811461117657600080fd5b50565b60008135905061118881611162565b92915050565b6000819050919050565b6111a18161118e565b81146111ac57600080fd5b50565b6000813590506111be81611198565b92915050565b6000806000606084860312156111dd576111dc61112b565b5b60006111eb86828701611179565b93505060206111fc86828701611179565b925050604061120d868287016111af565b9150509250925092565b60006020828403121561122d5761122c61112b565b5b600061123b84828501611179565b91505092915050565b61124d8161118e565b82525050565b60006020820190506112686000830184611244565b92915050565b600080604083850312156112855761128461112b565b5b600061129385828601611179565b92505060206112a4858286016111af565b9150509250929050565b6112b781611150565b82525050565b7f4e487b7100000000000000000000000000000000000000000000000000000000600052602160045260246000fd5b600381106112fd576112fc6112bd565b5b50565b600081905061130e826112ec565b919050565b600061131e82611300565b9050919050565b61132e81611313565b82525050565b60008115159050919050565b61134981611334565b82525050565b600061010082019050611365600083018b6112ae565b611372602083018a6112ae565b61137f6040830189611244565b61138c6060830188611244565b6113996080830187611325565b6113a660a0830186611340565b6113b360c0830185611244565b6113c060e0830184611244565b9998505050505050505050565b6000610100820190506113e3600083018b6112ae565b6113f0602083018a6112ae565b6113fd6040830189611244565b61140a6060830188611244565b6114176080830187611244565b61142460a0830186611244565b61143160c0830185611325565b61143e60e0830184611340565b9998505050505050505050565b600081519050919050565b600082825260208201905092915050565b6000819050602082019050919050565b61148081611150565b82525050565b61148f8161118e565b82525050565b61149e81611313565b82525050565b6114ad81611334565b82525050565b610100820160008201516114ca6000850182611477565b5060208201516114dd6020850182611477565b5060408201516114f06040850182611486565b5060608201516115036060850182611486565b5060808201516115166080850182611495565b5060a082015161152960a08501826114a4565b5060c082015161153c60c0850182611486565b5060e082015161154f60e0850182611486565b50505050565b600061156183836114b3565b6101008301905092915050565b6000602082019050919050565b60006115868261144b565b6115908185611456565b935061159b83611467565b8060005b838110156115cc5781516115b38882611555565b97506115be8361156e565b92505060018101905061159f565b5085935050505092915050565b600060208201905081810360008301526115f3818461157b565b905092915050565b600080600080608085870312156116155761161461112b565b5b600061162387828801611179565b9450506020611634878288016111af565b9350506040611645878288016111af565b9250506060611656878288016111af565b91505092959194509250565b7f4e487b7100000000000000000000000000000000000000000000000000000000600052603260045260246000fd5b600082825260208201905092915050565b7f496e76616c696420726563656976657200000000000000000000000000000000600082015250565b60006116d8601083611691565b91506116e3826116a2565b602082019050919050565b60006020820190508181036000830152611707816116cb565b9050919050565b7f536869706d656e74206973206e6f7420696e207472616e736974000000000000600082015250565b6000611744601a83611691565b915061174f8261170e565b602082019050919050565b6000602082019050818103600083015261177381611737565b9050919050565b7f536869706d656e7420616c726561647920706169640000000000000000000000600082015250565b60006117b0601583611691565b91506117bb8261177a565b602082019050919050565b600060208201905081810360008301526117df816117a3565b9050919050565b7f496e76616c696420526563656976657200000000000000000000000000000000600082015250565b600061181c601083611691565b9150611827826117e6565b602082019050919050565b6000602082019050818103600083015261184b8161180f565b9050919050565b7f536869706d656e7420697320616c726561647920696e207472616e7369740000600082015250565b6000611888601e83611691565b915061189382611852565b602082019050919050565b600060208201905081810360008301526118b78161187b565b9050919050565b7f496e76616c696420416d6f756e74000000000000000000000000000000000000600082015250565b60006118f4600e83611691565b91506118ff826118be565b602082019050919050565b60006020820190508181036000830152611923816118e7565b9050919050565b7f4e487b7100000000000000000000000000000000000000000000000000000000600052601160045260246000fd5b60006119648261118e565b91507fffffffffffffffffffffffffffffffffffffffffffffffffffffffffffffffff82036119965761199561192a565b5b600182019050919050565b6000819050919050565b6000819050919050565b60006119d06119cb6119c6846119a1565b6119ab565b61118e565b9050919050565b6119e0816119b5565b82525050565b60006080820190506119fb6000830187611244565b611a0860208301866119d7565b611a156040830185611244565b611a226060830184611244565b9594505050505056fea264697066735822122091e7313a08489fb809d75239af9064ce74b35925c45dda5333ec2c4b393c843f64736f6c63430008180033",
  "linkReferences": {},
  "deployedLinkReferences": {}
}